{
  "contractName": "Escrow",
  "abi": [
    {
      "anonymous": false,
      "inputs": [
        {
          "indexed": false,
          "internalType": "uint256",
          "name": "agreementId",
          "type": "uint256"
        },
        {
          "indexed": false,
          "internalType": "address",
          "name": "initiatorAddress",
          "type": "address"
        },
        {
          "indexed": false,
          "internalType": "address",
          "name": "initiatorCurrency",
          "type": "address"
        },
        {
          "indexed": false,
          "internalType": "uint256",
          "name": "initiatorSuppliedAmount",
          "type": "uint256"
        },
        {
          "indexed": false,
          "internalType": "address",
          "name": "counterpartyCurrency",
          "type": "address"
        },
        {
          "indexed": false,
          "internalType": "uint256",
          "name": "counterpartyRequiredAmount",
          "type": "uint256"
        }
      ],
      "name": "AgreementCreated",
      "type": "event"
    },
    {
      "inputs": [],
      "name": "agreementCounter",
      "outputs": [
        {
          "internalType": "uint256",
          "name": "",
          "type": "uint256"
        }
      ],
      "stateMutability": "view",
      "type": "function",
      "constant": true
    },
    {
      "inputs": [
        {
          "internalType": "uint256",
          "name": "",
          "type": "uint256"
        }
      ],
      "name": "agreements",
      "outputs": [
        {
          "components": [
            {
              "internalType": "address",
              "name": "initiatorAddress",
              "type": "address"
            },
            {
              "internalType": "address",
              "name": "currency",
              "type": "address"
            },
            {
              "internalType": "uint256",
              "name": "suppliedAmount",
              "type": "uint256"
            }
          ],
          "internalType": "struct Escrow.Initiator",
          "name": "initiator",
          "type": "tuple"
        },
        {
          "components": [
            {
              "internalType": "address",
              "name": "currency",
              "type": "address"
            },
            {
              "internalType": "uint256",
              "name": "requiredAmount",
              "type": "uint256"
            }
          ],
          "internalType": "struct Escrow.Counterparty",
          "name": "counterparty",
          "type": "tuple"
        },
        {
          "internalType": "bool",
          "name": "isFilled",
          "type": "bool"
        }
      ],
      "stateMutability": "view",
      "type": "function",
      "constant": true
    },
    {
      "inputs": [
        {
          "internalType": "address",
          "name": "initiatorCurrency",
          "type": "address"
        },
        {
          "internalType": "uint256",
          "name": "initiatorSuppliedAmount",
          "type": "uint256"
        },
        {
          "internalType": "address",
          "name": "counterPartyCurrency",
          "type": "address"
        },
        {
          "internalType": "uint256",
          "name": "counterPartyRequiredAmount",
          "type": "uint256"
        }
      ],
      "name": "createAgreement",
      "outputs": [],
      "stateMutability": "payable",
      "type": "function",
      "payable": true
    }
  ],
  "bytecode": "0x6080604052600060015534801561001557600080fd5b50610884806100256000396000f3fe6080604052600436106100345760003560e01c806314f79af714610039578063bd14de9614610064578063bf466cf7146100a3575b600080fd5b34801561004557600080fd5b5061004e6100bf565b60405161005b91906104b9565b60405180910390f35b34801561007057600080fd5b5061008b60048036038101906100869190610505565b6100c5565b60405161009a9392919061060e565b60405180910390f35b6100bd60048036038101906100b89190610671565b610226565b005b60015481565b6000602052806000526040600020600091509050806000016040518060600160405290816000820160009054906101000a900473ffffffffffffffffffffffffffffffffffffffff1673ffffffffffffffffffffffffffffffffffffffff1673ffffffffffffffffffffffffffffffffffffffff1681526020016001820160009054906101000a900473ffffffffffffffffffffffffffffffffffffffff1673ffffffffffffffffffffffffffffffffffffffff1673ffffffffffffffffffffffffffffffffffffffff16815260200160028201548152505090806003016040518060400160405290816000820160009054906101000a900473ffffffffffffffffffffffffffffffffffffffff1673ffffffffffffffffffffffffffffffffffffffff1673ffffffffffffffffffffffffffffffffffffffff168152602001600182015481525050908060050160009054906101000a900460ff16905083565b823414610268576040517f08c379a000000000000000000000000000000000000000000000000000000000815260040161025f9061075b565b60405180910390fd5b600060405180606001604052803373ffffffffffffffffffffffffffffffffffffffff1681526020018673ffffffffffffffffffffffffffffffffffffffff168152602001858152509050600060405180604001604052808573ffffffffffffffffffffffffffffffffffffffff1681526020018481525090506000604051806060016040528084815260200183815260200160001515815250905080600080600154815260200190815260200160002060008201518160000160008201518160000160006101000a81548173ffffffffffffffffffffffffffffffffffffffff021916908373ffffffffffffffffffffffffffffffffffffffff16021790555060208201518160010160006101000a81548173ffffffffffffffffffffffffffffffffffffffff021916908373ffffffffffffffffffffffffffffffffffffffff16021790555060408201518160020155505060208201518160030160008201518160000160006101000a81548173ffffffffffffffffffffffffffffffffffffffff021916908373ffffffffffffffffffffffffffffffffffffffff16021790555060208201518160010155505060408201518160050160006101000a81548160ff0219169083151502179055509050507f2aee9fc468e21fc7a8d1a4b4feea66f09e9090be2efa2481218c7b4c54761b6d60015433898989896040516104769695949392919061078a565b60405180910390a16001806000828254610490919061081a565b9250508190555050505050505050565b6000819050919050565b6104b3816104a0565b82525050565b60006020820190506104ce60008301846104aa565b92915050565b600080fd5b6104e2816104a0565b81146104ed57600080fd5b50565b6000813590506104ff816104d9565b92915050565b60006020828403121561051b5761051a6104d4565b5b6000610529848285016104f0565b91505092915050565b600073ffffffffffffffffffffffffffffffffffffffff82169050919050565b600061055d82610532565b9050919050565b61056d81610552565b82525050565b61057c816104a0565b82525050565b6060820160008201516105986000850182610564565b5060208201516105ab6020850182610564565b5060408201516105be6040850182610573565b50505050565b6040820160008201516105da6000850182610564565b5060208201516105ed6020850182610573565b50505050565b60008115159050919050565b610608816105f3565b82525050565b600060c0820190506106236000830186610582565b61063060608301856105c4565b61063d60a08301846105ff565b949350505050565b61064e81610552565b811461065957600080fd5b50565b60008135905061066b81610645565b92915050565b6000806000806080858703121561068b5761068a6104d4565b5b60006106998782880161065c565b94505060206106aa878288016104f0565b93505060406106bb8782880161065c565b92505060606106cc878288016104f0565b91505092959194509250565b600082825260208201905092915050565b7f53656e7420616d6f756e7420646f6573206e6f74206d6174636820746865207360008201527f7570706c69656420616d6f756e74000000000000000000000000000000000000602082015250565b6000610745602e836106d8565b9150610750826106e9565b604082019050919050565b6000602082019050818103600083015261077481610738565b9050919050565b61078481610552565b82525050565b600060c08201905061079f60008301896104aa565b6107ac602083018861077b565b6107b9604083018761077b565b6107c660608301866104aa565b6107d3608083018561077b565b6107e060a08301846104aa565b979650505050505050565b7f4e487b7100000000000000000000000000000000000000000000000000000000600052601160045260246000fd5b6000610825826104a0565b9150610830836104a0565b9250828201905080821115610848576108476107eb565b5b9291505056fea264697066735822122040b2382988cf53504a30a52c4b2968d00f81d8ae8f6b0c67edb0fd9369e88ca564736f6c63430008130033",
  "immutableReferences": {},
  "source": "// SPDX-License-Identifier: MIT\npragma solidity >=0.4.22 <0.9.0;\n\ncontract Escrow {\n    struct Initiator {\n        address initiatorAddress;\n        address currency;\n        uint256 suppliedAmount;\n    }\n\n    struct Counterparty {\n        address currency;\n        uint256 requiredAmount;\n    }\n\n    struct Agreement {\n        Initiator initiator;\n        Counterparty counterparty;\n        bool isFilled;\n    }\n\n    mapping(uint256 => Agreement) public agreements;\n    uint256 public agreementCounter = 0;\n\n    event AgreementCreated(uint256 agreementId, address initiatorAddress, address initiatorCurrency, uint256 initiatorSuppliedAmount, address counterpartyCurrency, uint256 counterpartyRequiredAmount);\n\n\n    function createAgreement(\n        // address,\n        address initiatorCurrency,\n        uint256 initiatorSuppliedAmount,\n        address counterPartyCurrency,\n        uint256 counterPartyRequiredAmount\n    ) public payable {\n        require(\n            msg.value == initiatorSuppliedAmount,\n            \"Sent amount does not match the supplied amount\"\n        );\n\n        Initiator memory newInitiator = Initiator(\n            msg.sender,\n            initiatorCurrency,\n            initiatorSuppliedAmount\n        );\n        Counterparty memory newCounterparty = Counterparty(\n            counterPartyCurrency,\n            counterPartyRequiredAmount\n        );\n\n        Agreement memory newAgg = Agreement(\n            newInitiator,\n            newCounterparty,\n            false\n        );\n\n        agreements[agreementCounter] = newAgg;\n\n        emit AgreementCreated(agreementCounter, msg.sender, initiatorCurrency, initiatorSuppliedAmount, counterPartyCurrency, counterPartyRequiredAmount);\n\n\n        agreementCounter += 1;        \n    }\n}\n",
  "sourcePath": "/Users/samthomson/code/escrow/contracts/Escrow.sol",
  "compiler": {
    "name": "solc",
    "version": "0.8.19+commit.7dd6d404.Emscripten.clang"
  },
  "schemaVersion": "3.4.13",
  "updatedAt": "2023-08-02T09:33:45.734Z",
  "networkType": "ethereum",
  "devdoc": {
    "kind": "dev",
    "methods": {},
    "version": 1
  },
  "userdoc": {
    "kind": "user",
    "methods": {},
    "version": 1
  }
}